{
  "address": "0xFcdF207613d9efcf5764B0BcE251e31d77D830f2",
  "abi": [
    {
      "inputs": [
        {
          "internalType": "address",
          "name": "_royaltyReceiver",
          "type": "address"
        }
      ],
      "stateMutability": "nonpayable",
      "type": "constructor"
    },
    {
      "anonymous": false,
      "inputs": [
        {
          "indexed": true,
          "internalType": "address",
          "name": "account",
          "type": "address"
        },
        {
          "indexed": true,
          "internalType": "address",
          "name": "operator",
          "type": "address"
        },
        {
          "indexed": false,
          "internalType": "bool",
          "name": "approved",
          "type": "bool"
        }
      ],
      "name": "ApprovalForAll",
      "type": "event"
    },
    {
      "anonymous": false,
      "inputs": [
        {
          "indexed": true,
          "internalType": "address",
          "name": "previousOwner",
          "type": "address"
        },
        {
          "indexed": true,
          "internalType": "address",
          "name": "newOwner",
          "type": "address"
        }
      ],
      "name": "OwnershipTransferred",
      "type": "event"
    },
    {
      "anonymous": false,
      "inputs": [
        {
          "indexed": true,
          "internalType": "address",
          "name": "operator",
          "type": "address"
        },
        {
          "indexed": true,
          "internalType": "address",
          "name": "from",
          "type": "address"
        },
        {
          "indexed": true,
          "internalType": "address",
          "name": "to",
          "type": "address"
        },
        {
          "indexed": false,
          "internalType": "uint256[]",
          "name": "ids",
          "type": "uint256[]"
        },
        {
          "indexed": false,
          "internalType": "uint256[]",
          "name": "values",
          "type": "uint256[]"
        }
      ],
      "name": "TransferBatch",
      "type": "event"
    },
    {
      "anonymous": false,
      "inputs": [
        {
          "indexed": true,
          "internalType": "address",
          "name": "operator",
          "type": "address"
        },
        {
          "indexed": true,
          "internalType": "address",
          "name": "from",
          "type": "address"
        },
        {
          "indexed": true,
          "internalType": "address",
          "name": "to",
          "type": "address"
        },
        {
          "indexed": false,
          "internalType": "uint256",
          "name": "id",
          "type": "uint256"
        },
        {
          "indexed": false,
          "internalType": "uint256",
          "name": "value",
          "type": "uint256"
        }
      ],
      "name": "TransferSingle",
      "type": "event"
    },
    {
      "anonymous": false,
      "inputs": [
        {
          "indexed": false,
          "internalType": "string",
          "name": "value",
          "type": "string"
        },
        {
          "indexed": true,
          "internalType": "uint256",
          "name": "id",
          "type": "uint256"
        }
      ],
      "name": "URI",
      "type": "event"
    },
    {
      "inputs": [],
      "name": "DOMAIN_SEPARATOR",
      "outputs": [
        {
          "internalType": "bytes32",
          "name": "",
          "type": "bytes32"
        }
      ],
      "stateMutability": "view",
      "type": "function"
    },
    {
      "inputs": [],
      "name": "PERMIT_TYPEHASH",
      "outputs": [
        {
          "internalType": "bytes32",
          "name": "",
          "type": "bytes32"
        }
      ],
      "stateMutability": "view",
      "type": "function"
    },
    {
      "inputs": [
        {
          "internalType": "address",
          "name": "account",
          "type": "address"
        },
        {
          "internalType": "uint256",
          "name": "id",
          "type": "uint256"
        }
      ],
      "name": "balanceOf",
      "outputs": [
        {
          "internalType": "uint256",
          "name": "",
          "type": "uint256"
        }
      ],
      "stateMutability": "view",
      "type": "function"
    },
    {
      "inputs": [
        {
          "internalType": "address[]",
          "name": "accounts",
          "type": "address[]"
        },
        {
          "internalType": "uint256[]",
          "name": "ids",
          "type": "uint256[]"
        }
      ],
      "name": "balanceOfBatch",
      "outputs": [
        {
          "internalType": "uint256[]",
          "name": "",
          "type": "uint256[]"
        }
      ],
      "stateMutability": "view",
      "type": "function"
    },
    {
      "inputs": [
        {
          "internalType": "uint256",
          "name": "id",
          "type": "uint256"
        },
        {
          "internalType": "uint256",
          "name": "amount",
          "type": "uint256"
        }
      ],
      "name": "burn",
      "outputs": [],
      "stateMutability": "nonpayable",
      "type": "function"
    },
    {
      "inputs": [
        {
          "internalType": "address",
          "name": "account",
          "type": "address"
        },
        {
          "internalType": "address",
          "name": "operator",
          "type": "address"
        }
      ],
      "name": "isApprovedForAll",
      "outputs": [
        {
          "internalType": "bool",
          "name": "",
          "type": "bool"
        }
      ],
      "stateMutability": "view",
      "type": "function"
    },
    {
      "inputs": [
        {
          "internalType": "address",
          "name": "to",
          "type": "address"
        },
        {
          "internalType": "uint256",
          "name": "id",
          "type": "uint256"
        },
        {
          "internalType": "uint256",
          "name": "amount",
          "type": "uint256"
        }
      ],
      "name": "mint",
      "outputs": [],
      "stateMutability": "nonpayable",
      "type": "function"
    },
    {
      "inputs": [],
      "name": "name",
      "outputs": [
        {
          "internalType": "string",
          "name": "",
          "type": "string"
        }
      ],
      "stateMutability": "view",
      "type": "function"
    },
    {
      "inputs": [
        {
          "internalType": "address",
          "name": "",
          "type": "address"
        }
      ],
      "name": "nonces",
      "outputs": [
        {
          "internalType": "uint256",
          "name": "",
          "type": "uint256"
        }
      ],
      "stateMutability": "view",
      "type": "function"
    },
    {
      "inputs": [],
      "name": "owner",
      "outputs": [
        {
          "internalType": "address",
          "name": "",
          "type": "address"
        }
      ],
      "stateMutability": "view",
      "type": "function"
    },
    {
      "inputs": [
        {
          "internalType": "address",
          "name": "owner",
          "type": "address"
        },
        {
          "internalType": "address",
          "name": "spender",
          "type": "address"
        },
        {
          "internalType": "uint256",
          "name": "deadline",
          "type": "uint256"
        },
        {
          "internalType": "uint8",
          "name": "v",
          "type": "uint8"
        },
        {
          "internalType": "bytes32",
          "name": "r",
          "type": "bytes32"
        },
        {
          "internalType": "bytes32",
          "name": "s",
          "type": "bytes32"
        }
      ],
      "name": "permit",
      "outputs": [],
      "stateMutability": "nonpayable",
      "type": "function"
    },
    {
      "inputs": [],
      "name": "renounceOwnership",
      "outputs": [],
      "stateMutability": "nonpayable",
      "type": "function"
    },
    {
      "inputs": [
        {
          "internalType": "uint256",
          "name": "",
          "type": "uint256"
        },
        {
          "internalType": "uint256",
          "name": "_salePrice",
          "type": "uint256"
        }
      ],
      "name": "royaltyInfo",
      "outputs": [
        {
          "internalType": "address",
          "name": "",
          "type": "address"
        },
        {
          "internalType": "uint256",
          "name": "",
          "type": "uint256"
        }
      ],
      "stateMutability": "view",
      "type": "function"
    },
    {
      "inputs": [
        {
          "internalType": "address",
          "name": "from",
          "type": "address"
        },
        {
          "internalType": "address",
          "name": "to",
          "type": "address"
        },
        {
          "internalType": "uint256[]",
          "name": "ids",
          "type": "uint256[]"
        },
        {
          "internalType": "uint256[]",
          "name": "amounts",
          "type": "uint256[]"
        },
        {
          "internalType": "bytes",
          "name": "data",
          "type": "bytes"
        }
      ],
      "name": "safeBatchTransferFrom",
      "outputs": [],
      "stateMutability": "nonpayable",
      "type": "function"
    },
    {
      "inputs": [
        {
          "internalType": "address",
          "name": "from",
          "type": "address"
        },
        {
          "internalType": "address",
          "name": "to",
          "type": "address"
        },
        {
          "internalType": "uint256",
          "name": "id",
          "type": "uint256"
        },
        {
          "internalType": "uint256",
          "name": "amount",
          "type": "uint256"
        },
        {
          "internalType": "bytes",
          "name": "data",
          "type": "bytes"
        }
      ],
      "name": "safeTransferFrom",
      "outputs": [],
      "stateMutability": "nonpayable",
      "type": "function"
    },
    {
      "inputs": [
        {
          "internalType": "address",
          "name": "operator",
          "type": "address"
        },
        {
          "internalType": "bool",
          "name": "approved",
          "type": "bool"
        }
      ],
      "name": "setApprovalForAll",
      "outputs": [],
      "stateMutability": "nonpayable",
      "type": "function"
    },
    {
      "inputs": [
        {
          "internalType": "address",
          "name": "_receiver",
          "type": "address"
        },
        {
          "internalType": "uint256",
          "name": "_royaltyFee",
          "type": "uint256"
        }
      ],
      "name": "setRoyaltyInfo",
      "outputs": [],
      "stateMutability": "nonpayable",
      "type": "function"
    },
    {
      "inputs": [
        {
          "internalType": "bytes4",
          "name": "interfaceId",
          "type": "bytes4"
        }
      ],
      "name": "supportsInterface",
      "outputs": [
        {
          "internalType": "bool",
          "name": "",
          "type": "bool"
        }
      ],
      "stateMutability": "view",
      "type": "function"
    },
    {
      "inputs": [
        {
          "internalType": "address",
          "name": "newOwner",
          "type": "address"
        }
      ],
      "name": "transferOwnership",
      "outputs": [],
      "stateMutability": "nonpayable",
      "type": "function"
    },
    {
      "inputs": [
        {
          "internalType": "uint256",
          "name": "",
          "type": "uint256"
        }
      ],
      "name": "uri",
      "outputs": [
        {
          "internalType": "string",
          "name": "",
          "type": "string"
        }
      ],
      "stateMutability": "view",
      "type": "function"
    }
  ],
  "transactionHash": "0xda163c1f47a707f40d57608541915ddb88a1fdf7bfb900b59cd1cccc7f966ff2",
  "args": [
    "0xf98268209f839B3cCD4cCb92D8E23ACf45D335b4"
  ],
  "solcInputHash": "a8024d08cac240e1437225c8fb245dbd",
  "bytecode": "0x61012060405260196005553480156200001757600080fd5b50604051620024fa380380620024fa8339810160408190526200003a91620002a6565b604051806060016040528060288152602001620024d260289139600080546001600160a01b031916339081178255604051909182917f8be0079c531659141344cd1fd0a4f28419497f9722a3daafe3b4186f6b6457e0908290a350620000a081620001e7565b504660a081815260408051808201825260148082527f4d616964436f696e204e7572736520506172747300000000000000000000000060209283018190527ff65a9f31e516179158d9fb9ab6032ef3746533cafa258807b551a359bcd3c7bd60c0818152855180870187526001808252603160f81b9187018290527fc89efdaa54c0f20c7adf612882df0950f5a951637e0307cdcb4c672f298b8bc660e08190527f8b73c3c69bb8fe3d512ecc4cf759cc79239f7b179b0ffacaa9a75d522b39400f6101008190528951808b018b5297885296880195909552875180890189529081528601528551808601949094528386019190915260608301919091526080828101969096523082860152835180830390950185520190915281519101209052600680546001600160a01b0319166001600160a01b039290921691909117905562000315565b8051620001fc90600390602084019062000200565b5050565b8280546200020e90620002d8565b90600052602060002090601f0160209004810192826200023257600085556200027d565b82601f106200024d57805160ff19168380011785556200027d565b828001600101855582156200027d579182015b828111156200027d57825182559160200191906001019062000260565b506200028b9291506200028f565b5090565b5b808211156200028b576000815560010162000290565b600060208284031215620002b957600080fd5b81516001600160a01b0381168114620002d157600080fd5b9392505050565b600181811c90821680620002ed57607f821691505b602082108114156200030f57634e487b7160e01b600052602260045260246000fd5b50919050565b60805160a05160c05160e051610100516121786200035a600039600061062e0152600061067c01526000610654015260006105dd0152600061060601526121786000f3fe608060405234801561001057600080fd5b506004361061012b5760003560e01c80634e1273f4116100ad578063b390c0ab11610071578063b390c0ab146102de578063e2e784d5146102f1578063e985e9c514610304578063f242432a14610340578063f2fde38b1461035357600080fd5b80634e1273f414610268578063715018a6146102885780637ecebe00146102905780638da5cb5b146102b0578063a22cb465146102cb57600080fd5b80632a55205a116100f45780632a55205a146101e15780632eb2c2d61461021357806330adf81f146102265780633644e5151461024d57806348613c281461025557600080fd5b8062fdd58e1461013057806301ffc9a71461015657806306fdde03146101795780630e89341c146101b9578063156e29f6146101cc575b600080fd5b61014361013e366004611afc565b610366565b6040519081526020015b60405180910390f35b610169610164366004611c2a565b6103ff565b604051901515815260200161014d565b6101ac604051806040016040528060148152602001734d616964436f696e204e7572736520506172747360601b81525081565b60405161014d9190611e23565b6101ac6101c7366004611c64565b61042a565b6101df6101da366004611b26565b6104be565b005b6101f46101ef366004611c7d565b610508565b604080516001600160a01b03909316835260208301919091520161014d565b6101df61022136600461194a565b610542565b6101437fdaab21af31ece73a508939fedd476a5ee5129a5ed4bb091f3236ffb45394df6281565b6101436105d9565b6101df610263366004611a59565b6106cd565b61027b610276366004611b59565b610990565b60405161014d9190611dca565b6101df610aba565b61014361029e3660046118f5565b60046020526000908152604090205481565b6000546040516001600160a01b03909116815260200161014d565b6101df6102d9366004611ac0565b610b2e565b6101df6102ec366004611c7d565b610b3d565b6101df6102ff366004611afc565b610b48565b610169610312366004611917565b6001600160a01b03918216600090815260026020908152604080832093909416825291909152205460ff1690565b6101df61034e3660046119f4565b610b98565b6101df6103613660046118f5565b610c1f565b60006001600160a01b0383166103d75760405162461bcd60e51b815260206004820152602b60248201527f455243313135353a2062616c616e636520717565727920666f7220746865207a60448201526a65726f206164647265737360a81b60648201526084015b60405180910390fd5b5060009081526001602090815260408083206001600160a01b03949094168352929052205490565b600063152a902d60e11b6001600160e01b031983161480610424575061042482610d09565b92915050565b60606003805461043990611fbf565b80601f016020809104026020016040519081016040528092919081815260200182805461046590611fbf565b80156104b25780601f10610487576101008083540402835291602001916104b2565b820191906000526020600020905b81548152906001019060200180831161049557829003601f168201915b50505050509050919050565b6000546001600160a01b031633146104e85760405162461bcd60e51b81526004016103ce90611f0d565b61050383838360405180602001604052806000815250610d59565b505050565b60065460055460009182916001600160a01b03909116906103e89061052d9086611fa0565b6105379190611f7e565b915091509250929050565b6001600160a01b03851633148061055e575061055e8533610312565b6105c55760405162461bcd60e51b815260206004820152603260248201527f455243313135353a207472616e736665722063616c6c6572206973206e6f74206044820152711bdddb995c881b9bdc88185c1c1c9bdd995960721b60648201526084016103ce565b6105d28585858585610e65565b5050505050565b60007f000000000000000000000000000000000000000000000000000000000000000046141561062857507f000000000000000000000000000000000000000000000000000000000000000090565b604080517f000000000000000000000000000000000000000000000000000000000000000060208201527f0000000000000000000000000000000000000000000000000000000000000000918101919091527f000000000000000000000000000000000000000000000000000000000000000060608201524660808201523060a082015260c00160405160208183030381529060405280519060200120905090565b90565b8342111561071d5760405162461bcd60e51b815260206004820152601b60248201527f4e75727365506172743a204578706972656420646561646c696e65000000000060448201526064016103ce565b60006107276105d9565b6001600160a01b038881166000818152600460208181526040808420805482517fdaab21af31ece73a508939fedd476a5ee5129a5ed4bb091f3236ffb45394df6281860152808401889052978f1660608901526080880181905260a08089018f90528351808a03909101815260c08901845280519085012061190160f01b60e08a015260e289018a9052610102808a01919091528351808a039091018152610122909801909252865196830196909620948452919052939450909260019291906107f2908490611f66565b9091555050873b1561090d57604080516020810186905280820185905260f887901b6001600160f81b0319166060820152815160418183030181526061820192839052630b135d3f60e11b9092526001600160a01b038a1691631626ba7e9161085f918591606501611e02565b60206040518083038186803b15801561087757600080fd5b505afa15801561088b573d6000803e3d6000fd5b505050506040513d601f19601f820116820180604052508101906108af9190611c47565b6001600160e01b031916631626ba7e60e01b146109085760405162461bcd60e51b8152602060048201526017602482015276139d5c9cd954185c9d0e88155b985d5d1a1bdc9a5e9959604a1b60448201526064016103ce565b61097a565b600061091b82878787611045565b9050886001600160a01b0316816001600160a01b0316146109785760405162461bcd60e51b8152602060048201526017602482015276139d5c9cd954185c9d0e88155b985d5d1a1bdc9a5e9959604a1b60448201526064016103ce565b505b610986888860016111ee565b5050505050505050565b606081518351146109f55760405162461bcd60e51b815260206004820152602960248201527f455243313135353a206163636f756e747320616e6420696473206c656e677468604482015268040dad2e6dac2e8c6d60bb1b60648201526084016103ce565b6000835167ffffffffffffffff811115610a1157610a1161206e565b604051908082528060200260200182016040528015610a3a578160200160208202803683370190505b50905060005b8451811015610ab257610a85858281518110610a5e57610a5e612058565b6020026020010151858381518110610a7857610a78612058565b6020026020010151610366565b828281518110610a9757610a97612058565b6020908102919091010152610aab81612027565b9050610a40565b509392505050565b6000546001600160a01b03163314610ae45760405162461bcd60e51b81526004016103ce90611f0d565b600080546040516001600160a01b03909116907f8be0079c531659141344cd1fd0a4f28419497f9722a3daafe3b4186f6b6457e0908390a3600080546001600160a01b0319169055565b610b393383836111ee565b5050565b610b393383836112cf565b6000546001600160a01b03163314610b725760405162461bcd60e51b81526004016103ce90611f0d565b600680546001600160a01b0319166001600160a01b039390931692909217909155600555565b6001600160a01b038516331480610bb45750610bb48533610312565b610c125760405162461bcd60e51b815260206004820152602960248201527f455243313135353a2063616c6c6572206973206e6f74206f776e6572206e6f7260448201526808185c1c1c9bdd995960ba1b60648201526084016103ce565b6105d2858585858561144d565b6000546001600160a01b03163314610c495760405162461bcd60e51b81526004016103ce90611f0d565b6001600160a01b038116610cae5760405162461bcd60e51b815260206004820152602660248201527f4f776e61626c653a206e6577206f776e657220697320746865207a65726f206160448201526564647265737360d01b60648201526084016103ce565b600080546040516001600160a01b03808516939216917f8be0079c531659141344cd1fd0a4f28419497f9722a3daafe3b4186f6b6457e091a3600080546001600160a01b0319166001600160a01b0392909216919091179055565b60006001600160e01b03198216636cdb3d1360e11b1480610d3a57506001600160e01b031982166303a24d0760e21b145b8061042457506301ffc9a760e01b6001600160e01b0319831614610424565b6001600160a01b038416610db95760405162461bcd60e51b815260206004820152602160248201527f455243313135353a206d696e7420746f20746865207a65726f206164647265736044820152607360f81b60648201526084016103ce565b33610dd381600087610dca8861156e565b6105d28861156e565b60008481526001602090815260408083206001600160a01b038916845290915281208054859290610e05908490611f66565b909155505060408051858152602081018590526001600160a01b0380881692600092918516917fc3d58168c5ae7397731d063d5bbf3d657854427343f4c083240f7aacaa2d0f62910160405180910390a46105d2816000878787876115b9565b8151835114610ec75760405162461bcd60e51b815260206004820152602860248201527f455243313135353a2069647320616e6420616d6f756e7473206c656e677468206044820152670dad2e6dac2e8c6d60c31b60648201526084016103ce565b6001600160a01b038416610eed5760405162461bcd60e51b81526004016103ce90611e7e565b3360005b8451811015610fd7576000858281518110610f0e57610f0e612058565b602002602001015190506000858381518110610f2c57610f2c612058565b60209081029190910181015160008481526001835260408082206001600160a01b038e168352909352919091205490915081811015610f7d5760405162461bcd60e51b81526004016103ce90611ec3565b60008381526001602090815260408083206001600160a01b038e8116855292528083208585039055908b16825281208054849290610fbc908490611f66565b9250508190555050505080610fd090612027565b9050610ef1565b50846001600160a01b0316866001600160a01b0316826001600160a01b03167f4a39dc06d4c0dbc64b70af90fd698a233a518aa5d07e595d983b8c0526c8f7fb8787604051611027929190611ddd565b60405180910390a461103d818787878787611724565b505050505050565b60007f7fffffffffffffffffffffffffffffff5d576e7357a4501ddfe92f46681b20a08211156110c25760405162461bcd60e51b815260206004820152602260248201527f45434453413a20696e76616c6964207369676e6174757265202773272076616c604482015261756560f01b60648201526084016103ce565b8360ff16601b14806110d757508360ff16601c145b61112e5760405162461bcd60e51b815260206004820152602260248201527f45434453413a20696e76616c6964207369676e6174757265202776272076616c604482015261756560f01b60648201526084016103ce565b6040805160008082526020820180845288905260ff871692820192909252606081018590526080810184905260019060a0016020604051602081039080840390855afa158015611182573d6000803e3d6000fd5b5050604051601f1901519150506001600160a01b0381166111e55760405162461bcd60e51b815260206004820152601860248201527f45434453413a20696e76616c6964207369676e6174757265000000000000000060448201526064016103ce565b95945050505050565b816001600160a01b0316836001600160a01b031614156112625760405162461bcd60e51b815260206004820152602960248201527f455243313135353a2073657474696e6720617070726f76616c20737461747573604482015268103337b91039b2b63360b91b60648201526084016103ce565b6001600160a01b03838116600081815260026020908152604080832094871680845294825291829020805460ff191686151590811790915591519182527f17307eab39ab6107e8899845ad3d59bd9653f200f220920489ca2b5937696c31910160405180910390a3505050565b6001600160a01b0383166113315760405162461bcd60e51b815260206004820152602360248201527f455243313135353a206275726e2066726f6d20746865207a65726f206164647260448201526265737360e81b60648201526084016103ce565b33611361818560006113428761156e565b61134b8761156e565b5050604080516020810190915260009052505050565b60008381526001602090815260408083206001600160a01b0388168452909152902054828110156113e05760405162461bcd60e51b8152602060048201526024808201527f455243313135353a206275726e20616d6f756e7420657863656564732062616c604482015263616e636560e01b60648201526084016103ce565b60008481526001602090815260408083206001600160a01b03898116808652918452828520888703905582518981529384018890529092908616917fc3d58168c5ae7397731d063d5bbf3d657854427343f4c083240f7aacaa2d0f62910160405180910390a45050505050565b6001600160a01b0384166114735760405162461bcd60e51b81526004016103ce90611e7e565b33611483818787610dca8861156e565b60008481526001602090815260408083206001600160a01b038a168452909152902054838110156114c65760405162461bcd60e51b81526004016103ce90611ec3565b60008581526001602090815260408083206001600160a01b038b8116855292528083208785039055908816825281208054869290611505908490611f66565b909155505060408051868152602081018690526001600160a01b03808916928a821692918616917fc3d58168c5ae7397731d063d5bbf3d657854427343f4c083240f7aacaa2d0f62910160405180910390a46115658288888888886115b9565b50505050505050565b604080516001808252818301909252606091600091906020808301908036833701905050905082816000815181106115a8576115a8612058565b602090810291909101015292915050565b6001600160a01b0384163b1561103d5760405163f23a6e6160e01b81526001600160a01b0385169063f23a6e61906115fd9089908990889088908890600401611d85565b602060405180830381600087803b15801561161757600080fd5b505af1925050508015611647575060408051601f3d908101601f1916820190925261164491810190611c47565b60015b6116f457611653612084565b806308c379a0141561168d575061166861209f565b80611673575061168f565b8060405162461bcd60e51b81526004016103ce9190611e23565b505b60405162461bcd60e51b815260206004820152603460248201527f455243313135353a207472616e7366657220746f206e6f6e20455243313135356044820152732932b1b2b4bb32b91034b6b83632b6b2b73a32b960611b60648201526084016103ce565b6001600160e01b0319811663f23a6e6160e01b146115655760405162461bcd60e51b81526004016103ce90611e36565b6001600160a01b0384163b1561103d5760405163bc197c8160e01b81526001600160a01b0385169063bc197c81906117689089908990889088908890600401611d27565b602060405180830381600087803b15801561178257600080fd5b505af19250505080156117b2575060408051601f3d908101601f191682019092526117af91810190611c47565b60015b6117be57611653612084565b6001600160e01b0319811663bc197c8160e01b146115655760405162461bcd60e51b81526004016103ce90611e36565b80356001600160a01b038116811461180557600080fd5b919050565b600082601f83011261181b57600080fd5b8135602061182882611f42565b6040516118358282611ffa565b8381528281019150858301600585901b8701840188101561185557600080fd5b60005b8581101561187457813584529284019290840190600101611858565b5090979650505050505050565b600082601f83011261189257600080fd5b813567ffffffffffffffff8111156118ac576118ac61206e565b6040516118c3601f8301601f191660200182611ffa565b8181528460208386010111156118d857600080fd5b816020850160208301376000918101602001919091529392505050565b60006020828403121561190757600080fd5b611910826117ee565b9392505050565b6000806040838503121561192a57600080fd5b611933836117ee565b9150611941602084016117ee565b90509250929050565b600080600080600060a0868803121561196257600080fd5b61196b866117ee565b9450611979602087016117ee565b9350604086013567ffffffffffffffff8082111561199657600080fd5b6119a289838a0161180a565b945060608801359150808211156119b857600080fd5b6119c489838a0161180a565b935060808801359150808211156119da57600080fd5b506119e788828901611881565b9150509295509295909350565b600080600080600060a08688031215611a0c57600080fd5b611a15866117ee565b9450611a23602087016117ee565b93506040860135925060608601359150608086013567ffffffffffffffff811115611a4d57600080fd5b6119e788828901611881565b60008060008060008060c08789031215611a7257600080fd5b611a7b876117ee565b9550611a89602088016117ee565b945060408701359350606087013560ff81168114611aa657600080fd5b9598949750929560808101359460a0909101359350915050565b60008060408385031215611ad357600080fd5b611adc836117ee565b915060208301358015158114611af157600080fd5b809150509250929050565b60008060408385031215611b0f57600080fd5b611b18836117ee565b946020939093013593505050565b600080600060608486031215611b3b57600080fd5b611b44846117ee565b95602085013595506040909401359392505050565b60008060408385031215611b6c57600080fd5b823567ffffffffffffffff80821115611b8457600080fd5b818501915085601f830112611b9857600080fd5b81356020611ba582611f42565b604051611bb28282611ffa565b8381528281019150858301600585901b870184018b1015611bd257600080fd5b600096505b84871015611bfc57611be8816117ee565b835260019690960195918301918301611bd7565b5096505086013592505080821115611c1357600080fd5b50611c208582860161180a565b9150509250929050565b600060208284031215611c3c57600080fd5b813561191081612129565b600060208284031215611c5957600080fd5b815161191081612129565b600060208284031215611c7657600080fd5b5035919050565b60008060408385031215611c9057600080fd5b50508035926020909101359150565b600081518084526020808501945080840160005b83811015611ccf57815187529582019590820190600101611cb3565b509495945050505050565b6000815180845260005b81811015611d0057602081850181015186830182015201611ce4565b81811115611d12576000602083870101525b50601f01601f19169290920160200192915050565b6001600160a01b0386811682528516602082015260a060408201819052600090611d5390830186611c9f565b8281036060840152611d658186611c9f565b90508281036080840152611d798185611cda565b98975050505050505050565b6001600160a01b03868116825285166020820152604081018490526060810183905260a060808201819052600090611dbf90830184611cda565b979650505050505050565b6020815260006119106020830184611c9f565b604081526000611df06040830185611c9f565b82810360208401526111e58185611c9f565b828152604060208201526000611e1b6040830184611cda565b949350505050565b6020815260006119106020830184611cda565b60208082526028908201527f455243313135353a204552433131353552656365697665722072656a656374656040820152676420746f6b656e7360c01b606082015260800190565b60208082526025908201527f455243313135353a207472616e7366657220746f20746865207a65726f206164604082015264647265737360d81b606082015260800190565b6020808252602a908201527f455243313135353a20696e73756666696369656e742062616c616e636520666f60408201526939103a3930b739b332b960b11b606082015260800190565b6020808252818101527f4f776e61626c653a2063616c6c6572206973206e6f7420746865206f776e6572604082015260600190565b600067ffffffffffffffff821115611f5c57611f5c61206e565b5060051b60200190565b60008219821115611f7957611f79612042565b500190565b600082611f9b57634e487b7160e01b600052601260045260246000fd5b500490565b6000816000190483118215151615611fba57611fba612042565b500290565b600181811c90821680611fd357607f821691505b60208210811415611ff457634e487b7160e01b600052602260045260246000fd5b50919050565b601f8201601f1916810167ffffffffffffffff811182821017156120205761202061206e565b6040525050565b600060001982141561203b5761203b612042565b5060010190565b634e487b7160e01b600052601160045260246000fd5b634e487b7160e01b600052603260045260246000fd5b634e487b7160e01b600052604160045260246000fd5b600060033d11156106ca5760046000803e5060005160e01c90565b600060443d10156120ad5790565b6040516003193d81016004833e81513d67ffffffffffffffff81602484011181841117156120dd57505050505090565b82850191508151818111156120f55750505050505090565b843d870101602082850101111561210f5750505050505090565b61211e60208286010187611ffa565b509095945050505050565b6001600160e01b03198116811461213f57600080fd5b5056fea26469706673582212208bf232d22ac22932c59c41eba636b2acb1361f71728644f9e39a9f345d184b0c64736f6c6343000805003368747470733a2f2f6170692e6d616964636f696e2e6f72672f6e7572736570617274732f7b69647d",
  "devdoc": {
    "kind": "dev",
    "methods": {
      "balanceOf(address,uint256)": {
        "details": "See {IERC1155-balanceOf}. Requirements: - `account` cannot be the zero address."
      },
      "balanceOfBatch(address[],uint256[])": {
        "details": "See {IERC1155-balanceOfBatch}. Requirements: - `accounts` and `ids` must have the same length."
      },
      "isApprovedForAll(address,address)": {
        "details": "See {IERC1155-isApprovedForAll}."
      },
      "owner()": {
        "details": "Returns the address of the current owner."
      },
      "renounceOwnership()": {
        "details": "Leaves the contract without owner. It will not be possible to call `onlyOwner` functions anymore. Can only be called by the current owner. NOTE: Renouncing ownership will leave the contract without an owner, thereby removing any functionality that is only available to the owner."
      },
      "safeBatchTransferFrom(address,address,uint256[],uint256[],bytes)": {
        "details": "See {IERC1155-safeBatchTransferFrom}."
      },
      "safeTransferFrom(address,address,uint256,uint256,bytes)": {
        "details": "See {IERC1155-safeTransferFrom}."
      },
      "setApprovalForAll(address,bool)": {
        "details": "See {IERC1155-setApprovalForAll}."
      },
      "transferOwnership(address)": {
        "details": "Transfers ownership of the contract to a new account (`newOwner`). Can only be called by the current owner."
      },
      "uri(uint256)": {
        "details": "See {IERC1155MetadataURI-uri}. This implementation returns the same URI for *all* token types. It relies on the token type ID substitution mechanism https://eips.ethereum.org/EIPS/eip-1155#metadata[defined in the EIP]. Clients calling this function must replace the `\\{id\\}` substring with the actual token type ID."
      }
    },
    "version": 1
  },
  "userdoc": {
    "kind": "user",
    "methods": {},
    "version": 1
  },
  "storageLayout": {
    "storage": [
      {
        "astId": 7,
        "contract": "contracts/NursePart.sol:NursePart",
        "label": "_owner",
        "offset": 0,
        "slot": "0",
        "type": "t_address"
      },
      {
        "astId": 11218,
        "contract": "contracts/NursePart.sol:NursePart",
        "label": "_balances",
        "offset": 0,
        "slot": "1",
        "type": "t_mapping(t_uint256,t_mapping(t_address,t_uint256))"
      },
      {
        "astId": 11224,
        "contract": "contracts/NursePart.sol:NursePart",
        "label": "_operatorApprovals",
        "offset": 0,
        "slot": "2",
        "type": "t_mapping(t_address,t_mapping(t_address,t_bool))"
      },
      {
        "astId": 11226,
        "contract": "contracts/NursePart.sol:NursePart",
        "label": "_uri",
        "offset": 0,
        "slot": "3",
        "type": "t_string_storage"
      },
      {
        "astId": 5598,
        "contract": "contracts/NursePart.sol:NursePart",
        "label": "nonces",
        "offset": 0,
        "slot": "4",
        "type": "t_mapping(t_address,t_uint256)"
      },
      {
        "astId": 5601,
        "contract": "contracts/NursePart.sol:NursePart",
        "label": "royaltyFee",
        "offset": 0,
        "slot": "5",
        "type": "t_uint256"
      },
      {
        "astId": 5603,
        "contract": "contracts/NursePart.sol:NursePart",
        "label": "royaltyReceiver",
        "offset": 0,
        "slot": "6",
        "type": "t_address"
      }
    ],
    "types": {
      "t_address": {
        "encoding": "inplace",
        "label": "address",
        "numberOfBytes": "20"
      },
      "t_bool": {
        "encoding": "inplace",
        "label": "bool",
        "numberOfBytes": "1"
      },
      "t_mapping(t_address,t_bool)": {
        "encoding": "mapping",
        "key": "t_address",
        "label": "mapping(address => bool)",
        "numberOfBytes": "32",
        "value": "t_bool"
      },
      "t_mapping(t_address,t_mapping(t_address,t_bool))": {
        "encoding": "mapping",
        "key": "t_address",
        "label": "mapping(address => mapping(address => bool))",
        "numberOfBytes": "32",
        "value": "t_mapping(t_address,t_bool)"
      },
      "t_mapping(t_address,t_uint256)": {
        "encoding": "mapping",
        "key": "t_address",
        "label": "mapping(address => uint256)",
        "numberOfBytes": "32",
        "value": "t_uint256"
      },
      "t_mapping(t_uint256,t_mapping(t_address,t_uint256))": {
        "encoding": "mapping",
        "key": "t_uint256",
        "label": "mapping(uint256 => mapping(address => uint256))",
        "numberOfBytes": "32",
        "value": "t_mapping(t_address,t_uint256)"
      },
      "t_string_storage": {
        "encoding": "bytes",
        "label": "string",
        "numberOfBytes": "32"
      },
      "t_uint256": {
        "encoding": "inplace",
        "label": "uint256",
        "numberOfBytes": "32"
      }
    }
  }
}