{
  "address": "0xf98268209f839B3cCD4cCb92D8E23ACf45D335b4",
  "abi": [
    {
      "inputs": [
        {
          "internalType": "contract IMaidCoin",
          "name": "_maidCoin",
          "type": "address"
        },
        {
          "internalType": "contract IWETH",
          "name": "_WETH",
          "type": "address"
        }
      ],
      "stateMutability": "nonpayable",
      "type": "constructor"
    },
    {
      "anonymous": false,
      "inputs": [
        {
          "indexed": true,
          "internalType": "address",
          "name": "owner",
          "type": "address"
        },
        {
          "indexed": true,
          "internalType": "address",
          "name": "spender",
          "type": "address"
        },
        {
          "indexed": false,
          "internalType": "uint256",
          "name": "value",
          "type": "uint256"
        }
      ],
      "name": "Approval",
      "type": "event"
    },
    {
      "anonymous": false,
      "inputs": [
        {
          "indexed": true,
          "internalType": "address",
          "name": "user",
          "type": "address"
        },
        {
          "indexed": false,
          "internalType": "uint256",
          "name": "amount",
          "type": "uint256"
        }
      ],
      "name": "Enter",
      "type": "event"
    },
    {
      "anonymous": false,
      "inputs": [
        {
          "indexed": true,
          "internalType": "address",
          "name": "user",
          "type": "address"
        },
        {
          "indexed": false,
          "internalType": "uint256",
          "name": "share",
          "type": "uint256"
        }
      ],
      "name": "Leave",
      "type": "event"
    },
    {
      "anonymous": false,
      "inputs": [
        {
          "indexed": true,
          "internalType": "address",
          "name": "previousOwner",
          "type": "address"
        },
        {
          "indexed": true,
          "internalType": "address",
          "name": "newOwner",
          "type": "address"
        }
      ],
      "name": "OwnershipTransferred",
      "type": "event"
    },
    {
      "anonymous": false,
      "inputs": [
        {
          "indexed": true,
          "internalType": "address",
          "name": "from",
          "type": "address"
        },
        {
          "indexed": true,
          "internalType": "address",
          "name": "to",
          "type": "address"
        },
        {
          "indexed": false,
          "internalType": "uint256",
          "name": "value",
          "type": "uint256"
        }
      ],
      "name": "Transfer",
      "type": "event"
    },
    {
      "inputs": [],
      "name": "WETH",
      "outputs": [
        {
          "internalType": "contract IWETH",
          "name": "",
          "type": "address"
        }
      ],
      "stateMutability": "view",
      "type": "function"
    },
    {
      "inputs": [
        {
          "internalType": "address",
          "name": "owner",
          "type": "address"
        },
        {
          "internalType": "address",
          "name": "spender",
          "type": "address"
        }
      ],
      "name": "allowance",
      "outputs": [
        {
          "internalType": "uint256",
          "name": "",
          "type": "uint256"
        }
      ],
      "stateMutability": "view",
      "type": "function"
    },
    {
      "inputs": [
        {
          "internalType": "address",
          "name": "spender",
          "type": "address"
        },
        {
          "internalType": "uint256",
          "name": "amount",
          "type": "uint256"
        }
      ],
      "name": "approve",
      "outputs": [
        {
          "internalType": "bool",
          "name": "",
          "type": "bool"
        }
      ],
      "stateMutability": "nonpayable",
      "type": "function"
    },
    {
      "inputs": [
        {
          "internalType": "address",
          "name": "account",
          "type": "address"
        }
      ],
      "name": "balanceOf",
      "outputs": [
        {
          "internalType": "uint256",
          "name": "",
          "type": "uint256"
        }
      ],
      "stateMutability": "view",
      "type": "function"
    },
    {
      "inputs": [],
      "name": "decimals",
      "outputs": [
        {
          "internalType": "uint8",
          "name": "",
          "type": "uint8"
        }
      ],
      "stateMutability": "view",
      "type": "function"
    },
    {
      "inputs": [
        {
          "internalType": "address",
          "name": "spender",
          "type": "address"
        },
        {
          "internalType": "uint256",
          "name": "subtractedValue",
          "type": "uint256"
        }
      ],
      "name": "decreaseAllowance",
      "outputs": [
        {
          "internalType": "bool",
          "name": "",
          "type": "bool"
        }
      ],
      "stateMutability": "nonpayable",
      "type": "function"
    },
    {
      "inputs": [
        {
          "internalType": "uint256",
          "name": "_amount",
          "type": "uint256"
        }
      ],
      "name": "enter",
      "outputs": [],
      "stateMutability": "nonpayable",
      "type": "function"
    },
    {
      "inputs": [
        {
          "internalType": "uint256",
          "name": "_amount",
          "type": "uint256"
        },
        {
          "internalType": "uint256",
          "name": "deadline",
          "type": "uint256"
        },
        {
          "internalType": "uint8",
          "name": "v",
          "type": "uint8"
        },
        {
          "internalType": "bytes32",
          "name": "r",
          "type": "bytes32"
        },
        {
          "internalType": "bytes32",
          "name": "s",
          "type": "bytes32"
        }
      ],
      "name": "enterWithPermit",
      "outputs": [],
      "stateMutability": "nonpayable",
      "type": "function"
    },
    {
      "inputs": [
        {
          "internalType": "address",
          "name": "spender",
          "type": "address"
        },
        {
          "internalType": "uint256",
          "name": "addedValue",
          "type": "uint256"
        }
      ],
      "name": "increaseAllowance",
      "outputs": [
        {
          "internalType": "bool",
          "name": "",
          "type": "bool"
        }
      ],
      "stateMutability": "nonpayable",
      "type": "function"
    },
    {
      "inputs": [
        {
          "internalType": "uint256",
          "name": "_share",
          "type": "uint256"
        }
      ],
      "name": "leave",
      "outputs": [],
      "stateMutability": "nonpayable",
      "type": "function"
    },
    {
      "inputs": [],
      "name": "maidCoin",
      "outputs": [
        {
          "internalType": "contract IMaidCoin",
          "name": "",
          "type": "address"
        }
      ],
      "stateMutability": "view",
      "type": "function"
    },
    {
      "inputs": [],
      "name": "name",
      "outputs": [
        {
          "internalType": "string",
          "name": "",
          "type": "string"
        }
      ],
      "stateMutability": "view",
      "type": "function"
    },
    {
      "inputs": [],
      "name": "owner",
      "outputs": [
        {
          "internalType": "address",
          "name": "",
          "type": "address"
        }
      ],
      "stateMutability": "view",
      "type": "function"
    },
    {
      "inputs": [],
      "name": "renounceOwnership",
      "outputs": [],
      "stateMutability": "nonpayable",
      "type": "function"
    },
    {
      "inputs": [
        {
          "internalType": "address",
          "name": "token",
          "type": "address"
        },
        {
          "internalType": "contract IUniswapV2Router02",
          "name": "router",
          "type": "address"
        },
        {
          "internalType": "address[]",
          "name": "path",
          "type": "address[]"
        },
        {
          "internalType": "uint256",
          "name": "amountOutMin",
          "type": "uint256"
        },
        {
          "internalType": "uint256",
          "name": "deadline",
          "type": "uint256"
        }
      ],
      "name": "swap",
      "outputs": [],
      "stateMutability": "nonpayable",
      "type": "function"
    },
    {
      "inputs": [],
      "name": "symbol",
      "outputs": [
        {
          "internalType": "string",
          "name": "",
          "type": "string"
        }
      ],
      "stateMutability": "view",
      "type": "function"
    },
    {
      "inputs": [],
      "name": "totalSupply",
      "outputs": [
        {
          "internalType": "uint256",
          "name": "",
          "type": "uint256"
        }
      ],
      "stateMutability": "view",
      "type": "function"
    },
    {
      "inputs": [
        {
          "internalType": "address",
          "name": "recipient",
          "type": "address"
        },
        {
          "internalType": "uint256",
          "name": "amount",
          "type": "uint256"
        }
      ],
      "name": "transfer",
      "outputs": [
        {
          "internalType": "bool",
          "name": "",
          "type": "bool"
        }
      ],
      "stateMutability": "nonpayable",
      "type": "function"
    },
    {
      "inputs": [
        {
          "internalType": "address",
          "name": "sender",
          "type": "address"
        },
        {
          "internalType": "address",
          "name": "recipient",
          "type": "address"
        },
        {
          "internalType": "uint256",
          "name": "amount",
          "type": "uint256"
        }
      ],
      "name": "transferFrom",
      "outputs": [
        {
          "internalType": "bool",
          "name": "",
          "type": "bool"
        }
      ],
      "stateMutability": "nonpayable",
      "type": "function"
    },
    {
      "inputs": [
        {
          "internalType": "address",
          "name": "newOwner",
          "type": "address"
        }
      ],
      "name": "transferOwnership",
      "outputs": [],
      "stateMutability": "nonpayable",
      "type": "function"
    },
    {
      "stateMutability": "payable",
      "type": "receive"
    }
  ],
  "transactionHash": "0xc713ef9b28cd7688d5e99ee748324645e31981e66867e264b83ea020f34dca9a",
  "args": [
    "0x288e2Fd4533F991Dd171F211BC2D54F77Ae2bE8C",
    "0xc778417E063141139Fce010982780140Aa0cD5Ab"
  ],
  "solcInputHash": "a8024d08cac240e1437225c8fb245dbd",
  "bytecode": "0x60c06040523480156200001157600080fd5b5060405162002032380380620020328339810160408190526200003491620001c3565b60408051808201825260098152684d616964204361666560b81b602080830191825283518085019094526004845263244f4d5560e01b90840152815191929162000081916003916200011d565b508051620000979060049060208401906200011d565b5050506000620000ac6200011960201b60201c565b600580546001600160a01b0319166001600160a01b038316908117909155604051919250906000907f8be0079c531659141344cd1fd0a4f28419497f9722a3daafe3b4186f6b6457e0908290a3506001600160601b0319606092831b8116608052911b1660a05262000258565b3390565b8280546200012b9062000202565b90600052602060002090601f0160209004810192826200014f57600085556200019a565b82601f106200016a57805160ff19168380011785556200019a565b828001600101855582156200019a579182015b828111156200019a5782518255916020019190600101906200017d565b50620001a8929150620001ac565b5090565b5b80821115620001a85760008155600101620001ad565b60008060408385031215620001d757600080fd5b8251620001e4816200023f565b6020840151909250620001f7816200023f565b809150509250929050565b600181811c908216806200021757607f821691505b602082108114156200023957634e487b7160e01b600052602260045260246000fd5b50919050565b6001600160a01b03811681146200025557600080fd5b50565b60805160601c60a05160601c611d6f620002c3600039600081816103830152818161061b01526106dd0152600081816102a4015281816105080152818161059201528181610acd01528181610b7401528181610d0c01528181610dee0152610e950152611d6f6000f3fe6080604052600436106101235760003560e01c8063849e5aff116100a0578063a9059cbb11610064578063a9059cbb14610351578063ad5c464814610371578063c11cd833146103a5578063dd62ed3e146103c5578063f2fde38b1461040b57600080fd5b8063849e5aff146102925780638da5cb5b146102de57806395d89b41146102fc578063a457c2d714610311578063a59f3e0c1461033157600080fd5b8063313ce567116100e7578063313ce567146101eb578063395093511461020757806367dfd4c91461022757806370a0823114610247578063715018a61461027d57600080fd5b806306fdde031461012f578063095ea7b31461015a5780630fe6d57c1461018a57806318160ddd146101ac57806323b872dd146101cb57600080fd5b3661012a57005b600080fd5b34801561013b57600080fd5b5061014461042b565b6040516101519190611afd565b60405180910390f35b34801561016657600080fd5b5061017a61017536600461194d565b6104bd565b6040519015158152602001610151565b34801561019657600080fd5b506101aa6101a53660046118a6565b6104d3565b005b3480156101b857600080fd5b506002545b604051908152602001610151565b3480156101d757600080fd5b5061017a6101e6366004611865565b6109b3565b3480156101f757600080fd5b5060405160128152602001610151565b34801561021357600080fd5b5061017a61022236600461194d565b610a66565b34801561023357600080fd5b506101aa610242366004611a60565b610a9d565b34801561025357600080fd5b506101bd61026236600461180f565b6001600160a01b031660009081526020819052604090205490565b34801561028957600080fd5b506101aa610bd6565b34801561029e57600080fd5b506102c67f000000000000000000000000000000000000000000000000000000000000000081565b6040516001600160a01b039091168152602001610151565b3480156102ea57600080fd5b506005546001600160a01b03166102c6565b34801561030857600080fd5b50610144610c4a565b34801561031d57600080fd5b5061017a61032c36600461194d565b610c59565b34801561033d57600080fd5b506101aa61034c366004611a60565b610cf4565b34801561035d57600080fd5b5061017a61036c36600461194d565b610e48565b34801561037d57600080fd5b506102c67f000000000000000000000000000000000000000000000000000000000000000081565b3480156103b157600080fd5b506101aa6103c0366004611a92565b610e55565b3480156103d157600080fd5b506101bd6103e036600461182c565b6001600160a01b03918216600090815260016020908152604080832093909416825291909152205490565b34801561041757600080fd5b506101aa61042636600461180f565b610f09565b60606003805461043a90611ca4565b80601f016020809104026020016040519081016040528092919081815260200182805461046690611ca4565b80156104b35780601f10610488576101008083540402835291602001916104b3565b820191906000526020600020905b81548152906001019060200180831161049657829003601f168201915b5050505050905090565b60006104ca338484610ff4565b50600192915050565b6005546001600160a01b031633146105065760405162461bcd60e51b81526004016104fd90611b30565b60405180910390fd5b7f00000000000000000000000000000000000000000000000000000000000000006001600160a01b0316866001600160a01b031614156105885760405162461bcd60e51b815260206004820152601760248201527f4d616964436166653a20496e76616c696420746f6b656e00000000000000000060448201526064016104fd565b6001600160a01b037f00000000000000000000000000000000000000000000000000000000000000001684846105bf600182611c61565b8181106105ce576105ce611cf5565b90506020020160208101906105e3919061180f565b6001600160a01b0316146106095760405162461bcd60e51b81526004016104fd90611b65565b60006001600160a01b038716610754577f00000000000000000000000000000000000000000000000000000000000000006001600160a01b03168585600081811061065657610656611cf5565b905060200201602081019061066b919061180f565b6001600160a01b0316146106915760405162461bcd60e51b81526004016104fd90611b65565b5047806106db5760405162461bcd60e51b815260206004820152601860248201527713585a5910d859994e88125b9d985b1a5908185b5bdd5b9d60421b60448201526064016104fd565b7f00000000000000000000000000000000000000000000000000000000000000006001600160a01b031663d0e30db0826040518263ffffffff1660e01b81526004016000604051808303818588803b15801561073657600080fd5b505af115801561074a573d6000803e3d6000fd5b5050505050610870565b866001600160a01b03168585600081811061077157610771611cf5565b9050602002016020810190610786919061180f565b6001600160a01b0316146107ac5760405162461bcd60e51b81526004016104fd90611b65565b6040516370a0823160e01b81523060048201526001600160a01b038816906370a082319060240160206040518083038186803b1580156107eb57600080fd5b505afa1580156107ff573d6000803e3d6000fd5b505050506040513d601f19601f820116820180604052508101906108239190611a79565b9050600081116108705760405162461bcd60e51b815260206004820152601860248201527713585a5910d859994e88125b9d985b1a5908185b5bdd5b9d60421b60448201526064016104fd565b8484600081811061088357610883611cf5565b9050602002016020810190610898919061180f565b60405163095ea7b360e01b81526001600160a01b03888116600483015260248201849052919091169063095ea7b390604401602060405180830381600087803b1580156108e457600080fd5b505af11580156108f8573d6000803e3d6000fd5b505050506040513d601f19601f8201168201806040525081019061091c9190611a3e565b506040516338ed173960e01b81526001600160a01b038716906338ed17399061095390849087908a908a9030908a90600401611b95565b600060405180830381600087803b15801561096d57600080fd5b505af1158015610981573d6000803e3d6000fd5b505050506040513d6000823e601f3d908101601f191682016040526109a99190810190611979565b5050505050505050565b60006109c0848484611119565b6001600160a01b038416600090815260016020908152604080832033845290915290205482811015610a455760405162461bcd60e51b815260206004820152602860248201527f45524332303a207472616e7366657220616d6f756e74206578636565647320616044820152676c6c6f77616e636560c01b60648201526084016104fd565b610a598533610a548685611c61565b610ff4565b60019150505b9392505050565b3360008181526001602090815260408083206001600160a01b038716845290915281205490916104ca918590610a54908690611c08565b6000610aa860025490565b6040516370a0823160e01b815230600482015290915060009082906001600160a01b037f000000000000000000000000000000000000000000000000000000000000000016906370a082319060240160206040518083038186803b158015610b0f57600080fd5b505afa158015610b23573d6000803e3d6000fd5b505050506040513d601f19601f82011682018060405250810190610b479190611a79565b610b519085611c42565b610b5b9190611c20565b9050610b6733846112f1565b610b9b6001600160a01b037f0000000000000000000000000000000000000000000000000000000000000000163383611440565b60405183815233907f61a26f7c17d8780c095ccfa67e689a13ee4e06ddce3da18956369f4a396100e8906020015b60405180910390a2505050565b6005546001600160a01b03163314610c005760405162461bcd60e51b81526004016104fd90611b30565b6005546040516000916001600160a01b0316907f8be0079c531659141344cd1fd0a4f28419497f9722a3daafe3b4186f6b6457e0908390a3600580546001600160a01b0319169055565b60606004805461043a90611ca4565b3360009081526001602090815260408083206001600160a01b038616845290915281205482811015610cdb5760405162461bcd60e51b815260206004820152602560248201527f45524332303a2064656372656173656420616c6c6f77616e63652062656c6f77604482015264207a65726f60d81b60648201526084016104fd565b610cea3385610a548685611c61565b5060019392505050565b6040516370a0823160e01b81523060048201526000907f00000000000000000000000000000000000000000000000000000000000000006001600160a01b0316906370a082319060240160206040518083038186803b158015610d5657600080fd5b505afa158015610d6a573d6000803e3d6000fd5b505050506040513d601f19601f82011682018060405250810190610d8e9190611a79565b90506000610d9b60025490565b9050801580610da8575081155b15610dbc57610db733846114a8565b610de1565b600082610dc98386611c42565b610dd39190611c20565b9050610ddf33826114a8565b505b610e166001600160a01b037f000000000000000000000000000000000000000000000000000000000000000016333086611587565b60405183815233907f1fb48929215fc354244acea33112720ce5b7ba6912db70bb0149e77aa7c91ce190602001610bc9565b60006104ca338484611119565b60405163d505accf60e01b8152336004820152306024820152604481018690526064810185905260ff8416608482015260a4810183905260c481018290527f00000000000000000000000000000000000000000000000000000000000000006001600160a01b03169063d505accf9060e401600060405180830381600087803b158015610ee157600080fd5b505af1158015610ef5573d6000803e3d6000fd5b50505050610f0285610cf4565b5050505050565b6005546001600160a01b03163314610f335760405162461bcd60e51b81526004016104fd90611b30565b6001600160a01b038116610f985760405162461bcd60e51b815260206004820152602660248201527f4f776e61626c653a206e6577206f776e657220697320746865207a65726f206160448201526564647265737360d01b60648201526084016104fd565b6005546040516001600160a01b038084169216907f8be0079c531659141344cd1fd0a4f28419497f9722a3daafe3b4186f6b6457e090600090a3600580546001600160a01b0319166001600160a01b0392909216919091179055565b6001600160a01b0383166110565760405162461bcd60e51b8152602060048201526024808201527f45524332303a20617070726f76652066726f6d20746865207a65726f206164646044820152637265737360e01b60648201526084016104fd565b6001600160a01b0382166110b75760405162461bcd60e51b815260206004820152602260248201527f45524332303a20617070726f766520746f20746865207a65726f206164647265604482015261737360f01b60648201526084016104fd565b6001600160a01b0383811660008181526001602090815260408083209487168084529482529182902085905590518481527f8c5be1e5ebec7d5bd14f71427d1e84f3dd0314c0f7b2291e5b200ac8c7c3b92591015b60405180910390a3505050565b6001600160a01b03831661117d5760405162461bcd60e51b815260206004820152602560248201527f45524332303a207472616e736665722066726f6d20746865207a65726f206164604482015264647265737360d81b60648201526084016104fd565b6001600160a01b0382166111df5760405162461bcd60e51b815260206004820152602360248201527f45524332303a207472616e7366657220746f20746865207a65726f206164647260448201526265737360e81b60648201526084016104fd565b6001600160a01b038316600090815260208190526040902054818110156112575760405162461bcd60e51b815260206004820152602660248201527f45524332303a207472616e7366657220616d6f756e7420657863656564732062604482015265616c616e636560d01b60648201526084016104fd565b6112618282611c61565b6001600160a01b038086166000908152602081905260408082209390935590851681529081208054849290611297908490611c08565b92505081905550826001600160a01b0316846001600160a01b03167fddf252ad1be2c89b69c2b068fc378daa952ba7f163c4a11628f55a4df523b3ef846040516112e391815260200190565b60405180910390a350505050565b6001600160a01b0382166113515760405162461bcd60e51b815260206004820152602160248201527f45524332303a206275726e2066726f6d20746865207a65726f206164647265736044820152607360f81b60648201526084016104fd565b6001600160a01b038216600090815260208190526040902054818110156113c55760405162461bcd60e51b815260206004820152602260248201527f45524332303a206275726e20616d6f756e7420657863656564732062616c616e604482015261636560f01b60648201526084016104fd565b6113cf8282611c61565b6001600160a01b038416600090815260208190526040812091909155600280548492906113fd908490611c61565b90915550506040518281526000906001600160a01b038516907fddf252ad1be2c89b69c2b068fc378daa952ba7f163c4a11628f55a4df523b3ef9060200161110c565b6040516001600160a01b0383166024820152604481018290526114a390849063a9059cbb60e01b906064015b60408051601f198184030181529190526020810180516001600160e01b03166001600160e01b0319909316929092179091526115c5565b505050565b6001600160a01b0382166114fe5760405162461bcd60e51b815260206004820152601f60248201527f45524332303a206d696e7420746f20746865207a65726f20616464726573730060448201526064016104fd565b80600260008282546115109190611c08565b90915550506001600160a01b0382166000908152602081905260408120805483929061153d908490611c08565b90915550506040518181526001600160a01b038316906000907fddf252ad1be2c89b69c2b068fc378daa952ba7f163c4a11628f55a4df523b3ef9060200160405180910390a35050565b6040516001600160a01b03808516602483015283166044820152606481018290526115bf9085906323b872dd60e01b9060840161146c565b50505050565b600061161a826040518060400160405280602081526020017f5361666545524332303a206c6f772d6c6576656c2063616c6c206661696c6564815250856001600160a01b03166116979092919063ffffffff16565b8051909150156114a357808060200190518101906116389190611a3e565b6114a35760405162461bcd60e51b815260206004820152602a60248201527f5361666545524332303a204552433230206f7065726174696f6e20646964206e6044820152691bdd081cdd58d8d9595960b21b60648201526084016104fd565b60606116a684846000856116ae565b949350505050565b60608247101561170f5760405162461bcd60e51b815260206004820152602660248201527f416464726573733a20696e73756666696369656e742062616c616e636520666f6044820152651c8818d85b1b60d21b60648201526084016104fd565b843b61175d5760405162461bcd60e51b815260206004820152601d60248201527f416464726573733a2063616c6c20746f206e6f6e2d636f6e747261637400000060448201526064016104fd565b600080866001600160a01b031685876040516117799190611ae1565b60006040518083038185875af1925050503d80600081146117b6576040519150601f19603f3d011682016040523d82523d6000602084013e6117bb565b606091505b50915091506117cb8282866117d6565b979650505050505050565b606083156117e5575081610a5f565b8251156117f55782518084602001fd5b8160405162461bcd60e51b81526004016104fd9190611afd565b60006020828403121561182157600080fd5b8135610a5f81611d21565b6000806040838503121561183f57600080fd5b823561184a81611d21565b9150602083013561185a81611d21565b809150509250929050565b60008060006060848603121561187a57600080fd5b833561188581611d21565b9250602084013561189581611d21565b929592945050506040919091013590565b60008060008060008060a087890312156118bf57600080fd5b86356118ca81611d21565b955060208701356118da81611d21565b9450604087013567ffffffffffffffff808211156118f757600080fd5b818901915089601f83011261190b57600080fd5b81358181111561191a57600080fd5b8a60208260051b850101111561192f57600080fd5b979a9699505060200196606081013595608090910135945092505050565b6000806040838503121561196057600080fd5b823561196b81611d21565b946020939093013593505050565b6000602080838503121561198c57600080fd5b825167ffffffffffffffff808211156119a457600080fd5b818501915085601f8301126119b857600080fd5b8151818111156119ca576119ca611d0b565b8060051b604051601f19603f830116810181811085821117156119ef576119ef611d0b565b604052828152858101935084860182860187018a1015611a0e57600080fd5b600095505b83861015611a31578051855260019590950194938601938601611a13565b5098975050505050505050565b600060208284031215611a5057600080fd5b81518015158114610a5f57600080fd5b600060208284031215611a7257600080fd5b5035919050565b600060208284031215611a8b57600080fd5b5051919050565b600080600080600060a08688031215611aaa57600080fd5b8535945060208601359350604086013560ff81168114611ac957600080fd5b94979396509394606081013594506080013592915050565b60008251611af3818460208701611c78565b9190910192915050565b6020815260008251806020840152611b1c816040850160208701611c78565b601f01601f19169190910160400192915050565b6020808252818101527f4f776e61626c653a2063616c6c6572206973206e6f7420746865206f776e6572604082015260600190565b60208082526016908201527509ac2d2c886c2ccca744092dcecc2d8d2c840e0c2e8d60531b604082015260600190565b868152602080820187905260a0604083018190528201859052600090869060c08401835b88811015611be7578335611bcc81611d21565b6001600160a01b031682529282019290820190600101611bb9565b506001600160a01b0396909616606085015250505060800152949350505050565b60008219821115611c1b57611c1b611cdf565b500190565b600082611c3d57634e487b7160e01b600052601260045260246000fd5b500490565b6000816000190483118215151615611c5c57611c5c611cdf565b500290565b600082821015611c7357611c73611cdf565b500390565b60005b83811015611c93578181015183820152602001611c7b565b838111156115bf5750506000910152565b600181811c90821680611cb857607f821691505b60208210811415611cd957634e487b7160e01b600052602260045260246000fd5b50919050565b634e487b7160e01b600052601160045260246000fd5b634e487b7160e01b600052603260045260246000fd5b634e487b7160e01b600052604160045260246000fd5b6001600160a01b0381168114611d3657600080fd5b5056fea2646970667358221220ebea8c2af69fc5685ce08c4ec17f7a28f3c4c16f883036f5a2f7720927405fc064736f6c63430008050033",
  "devdoc": {
    "kind": "dev",
    "methods": {
      "allowance(address,address)": {
        "details": "See {IERC20-allowance}."
      },
      "approve(address,uint256)": {
        "details": "See {IERC20-approve}. Requirements: - `spender` cannot be the zero address."
      },
      "balanceOf(address)": {
        "details": "See {IERC20-balanceOf}."
      },
      "decimals()": {
        "details": "Returns the number of decimals used to get its user representation. For example, if `decimals` equals `2`, a balance of `505` tokens should be displayed to a user as `5,05` (`505 / 10 ** 2`). Tokens usually opt for a value of 18, imitating the relationship between Ether and Wei. This is the value {ERC20} uses, unless this function is overridden; NOTE: This information is only used for _display_ purposes: it in no way affects any of the arithmetic of the contract, including {IERC20-balanceOf} and {IERC20-transfer}."
      },
      "decreaseAllowance(address,uint256)": {
        "details": "Atomically decreases the allowance granted to `spender` by the caller. This is an alternative to {approve} that can be used as a mitigation for problems described in {IERC20-approve}. Emits an {Approval} event indicating the updated allowance. Requirements: - `spender` cannot be the zero address. - `spender` must have allowance for the caller of at least `subtractedValue`."
      },
      "increaseAllowance(address,uint256)": {
        "details": "Atomically increases the allowance granted to `spender` by the caller. This is an alternative to {approve} that can be used as a mitigation for problems described in {IERC20-approve}. Emits an {Approval} event indicating the updated allowance. Requirements: - `spender` cannot be the zero address."
      },
      "name()": {
        "details": "Returns the name of the token."
      },
      "owner()": {
        "details": "Returns the address of the current owner."
      },
      "renounceOwnership()": {
        "details": "Leaves the contract without owner. It will not be possible to call `onlyOwner` functions anymore. Can only be called by the current owner. NOTE: Renouncing ownership will leave the contract without an owner, thereby removing any functionality that is only available to the owner."
      },
      "symbol()": {
        "details": "Returns the symbol of the token, usually a shorter version of the name."
      },
      "totalSupply()": {
        "details": "See {IERC20-totalSupply}."
      },
      "transfer(address,uint256)": {
        "details": "See {IERC20-transfer}. Requirements: - `recipient` cannot be the zero address. - the caller must have a balance of at least `amount`."
      },
      "transferFrom(address,address,uint256)": {
        "details": "See {IERC20-transferFrom}. Emits an {Approval} event indicating the updated allowance. This is not required by the EIP. See the note at the beginning of {ERC20}. Requirements: - `sender` and `recipient` cannot be the zero address. - `sender` must have a balance of at least `amount`. - the caller must have allowance for ``sender``'s tokens of at least `amount`."
      },
      "transferOwnership(address)": {
        "details": "Transfers ownership of the contract to a new account (`newOwner`). Can only be called by the current owner."
      }
    },
    "version": 1
  },
  "userdoc": {
    "kind": "user",
    "methods": {},
    "version": 1
  },
  "storageLayout": {
    "storage": [
      {
        "astId": 388,
        "contract": "contracts/MaidCafe.sol:MaidCafe",
        "label": "_balances",
        "offset": 0,
        "slot": "0",
        "type": "t_mapping(t_address,t_uint256)"
      },
      {
        "astId": 394,
        "contract": "contracts/MaidCafe.sol:MaidCafe",
        "label": "_allowances",
        "offset": 0,
        "slot": "1",
        "type": "t_mapping(t_address,t_mapping(t_address,t_uint256))"
      },
      {
        "astId": 396,
        "contract": "contracts/MaidCafe.sol:MaidCafe",
        "label": "_totalSupply",
        "offset": 0,
        "slot": "2",
        "type": "t_uint256"
      },
      {
        "astId": 398,
        "contract": "contracts/MaidCafe.sol:MaidCafe",
        "label": "_name",
        "offset": 0,
        "slot": "3",
        "type": "t_string_storage"
      },
      {
        "astId": 400,
        "contract": "contracts/MaidCafe.sol:MaidCafe",
        "label": "_symbol",
        "offset": 0,
        "slot": "4",
        "type": "t_string_storage"
      },
      {
        "astId": 7,
        "contract": "contracts/MaidCafe.sol:MaidCafe",
        "label": "_owner",
        "offset": 0,
        "slot": "5",
        "type": "t_address"
      }
    ],
    "types": {
      "t_address": {
        "encoding": "inplace",
        "label": "address",
        "numberOfBytes": "20"
      },
      "t_mapping(t_address,t_mapping(t_address,t_uint256))": {
        "encoding": "mapping",
        "key": "t_address",
        "label": "mapping(address => mapping(address => uint256))",
        "numberOfBytes": "32",
        "value": "t_mapping(t_address,t_uint256)"
      },
      "t_mapping(t_address,t_uint256)": {
        "encoding": "mapping",
        "key": "t_address",
        "label": "mapping(address => uint256)",
        "numberOfBytes": "32",
        "value": "t_uint256"
      },
      "t_string_storage": {
        "encoding": "bytes",
        "label": "string",
        "numberOfBytes": "32"
      },
      "t_uint256": {
        "encoding": "inplace",
        "label": "uint256",
        "numberOfBytes": "32"
      }
    }
  }
}